{"abi":[{"type":"constructor","inputs":[{"name":"uri","type":"string","internalType":"string"},{"name":"_treasury","type":"address","internalType":"address"}],"stateMutability":"nonpayable"},{"type":"function","name":"balanceOf","inputs":[{"name":"account","type":"address","internalType":"address"},{"name":"id","type":"uint256","internalType":"uint256"}],"outputs":[{"name":"","type":"uint256","internalType":"uint256"}],"stateMutability":"view"},{"type":"function","name":"balanceOfBatch","inputs":[{"name":"accounts","type":"address[]","internalType":"address[]"},{"name":"ids","type":"uint256[]","internalType":"uint256[]"}],"outputs":[{"name":"","type":"uint256[]","internalType":"uint256[]"}],"stateMutability":"view"},{"type":"function","name":"createToken","inputs":[{"name":"uri","type":"string","internalType":"string"},{"name":"maxSupply","type":"uint256","internalType":"uint256"}],"outputs":[{"name":"","type":"uint256","internalType":"uint256"}],"stateMutability":"nonpayable"},{"type":"function","name":"getTokens","inputs":[{"name":"tokenId","type":"uint256","internalType":"uint256"}],"outputs":[{"name":"","type":"tuple","internalType":"struct IChannelTypesV1.TokenConfig","components":[{"name":"uri","type":"string","internalType":"string"},{"name":"maxSupply","type":"uint256","internalType":"uint256"},{"name":"totalMinted","type":"uint256","internalType":"uint256"}]}],"stateMutability":"view"},{"type":"function","name":"getTreasury","inputs":[],"outputs":[{"name":"","type":"address","internalType":"address"}],"stateMutability":"view"},{"type":"function","name":"isApprovedForAll","inputs":[{"name":"account","type":"address","internalType":"address"},{"name":"operator","type":"address","internalType":"address"}],"outputs":[{"name":"","type":"bool","internalType":"bool"}],"stateMutability":"view"},{"type":"function","name":"mint","inputs":[{"name":"account","type":"address","internalType":"address"},{"name":"tokenId","type":"uint256","internalType":"uint256"},{"name":"amount","type":"uint256","internalType":"uint256"},{"name":"data","type":"bytes","internalType":"bytes"}],"outputs":[],"stateMutability":"nonpayable"},{"type":"function","name":"safeBatchTransferFrom","inputs":[{"name":"from","type":"address","internalType":"address"},{"name":"to","type":"address","internalType":"address"},{"name":"ids","type":"uint256[]","internalType":"uint256[]"},{"name":"values","type":"uint256[]","internalType":"uint256[]"},{"name":"data","type":"bytes","internalType":"bytes"}],"outputs":[],"stateMutability":"nonpayable"},{"type":"function","name":"safeTransferFrom","inputs":[{"name":"from","type":"address","internalType":"address"},{"name":"to","type":"address","internalType":"address"},{"name":"id","type":"uint256","internalType":"uint256"},{"name":"value","type":"uint256","internalType":"uint256"},{"name":"data","type":"bytes","internalType":"bytes"}],"outputs":[],"stateMutability":"nonpayable"},{"type":"function","name":"setApprovalForAll","inputs":[{"name":"operator","type":"address","internalType":"address"},{"name":"approved","type":"bool","internalType":"bool"}],"outputs":[],"stateMutability":"nonpayable"},{"type":"function","name":"supportsInterface","inputs":[{"name":"interfaceId","type":"bytes4","internalType":"bytes4"}],"outputs":[{"name":"","type":"bool","internalType":"bool"}],"stateMutability":"view"},{"type":"function","name":"treasury","inputs":[],"outputs":[{"name":"","type":"address","internalType":"address"}],"stateMutability":"view"},{"type":"function","name":"uri","inputs":[{"name":"","type":"uint256","internalType":"uint256"}],"outputs":[{"name":"","type":"string","internalType":"string"}],"stateMutability":"view"},{"type":"event","name":"ApprovalForAll","inputs":[{"name":"account","type":"address","indexed":true,"internalType":"address"},{"name":"operator","type":"address","indexed":true,"internalType":"address"},{"name":"approved","type":"bool","indexed":false,"internalType":"bool"}],"anonymous":false},{"type":"event","name":"TransferBatch","inputs":[{"name":"operator","type":"address","indexed":true,"internalType":"address"},{"name":"from","type":"address","indexed":true,"internalType":"address"},{"name":"to","type":"address","indexed":true,"internalType":"address"},{"name":"ids","type":"uint256[]","indexed":false,"internalType":"uint256[]"},{"name":"values","type":"uint256[]","indexed":false,"internalType":"uint256[]"}],"anonymous":false},{"type":"event","name":"TransferSingle","inputs":[{"name":"operator","type":"address","indexed":true,"internalType":"address"},{"name":"from","type":"address","indexed":true,"internalType":"address"},{"name":"to","type":"address","indexed":true,"internalType":"address"},{"name":"id","type":"uint256","indexed":false,"internalType":"uint256"},{"name":"value","type":"uint256","indexed":false,"internalType":"uint256"}],"anonymous":false},{"type":"event","name":"URI","inputs":[{"name":"value","type":"string","indexed":false,"internalType":"string"},{"name":"id","type":"uint256","indexed":true,"internalType":"uint256"}],"anonymous":false},{"type":"error","name":"ERC1155InsufficientBalance","inputs":[{"name":"sender","type":"address","internalType":"address"},{"name":"balance","type":"uint256","internalType":"uint256"},{"name":"needed","type":"uint256","internalType":"uint256"},{"name":"tokenId","type":"uint256","internalType":"uint256"}]},{"type":"error","name":"ERC1155InvalidApprover","inputs":[{"name":"approver","type":"address","internalType":"address"}]},{"type":"error","name":"ERC1155InvalidArrayLength","inputs":[{"name":"idsLength","type":"uint256","internalType":"uint256"},{"name":"valuesLength","type":"uint256","internalType":"uint256"}]},{"type":"error","name":"ERC1155InvalidOperator","inputs":[{"name":"operator","type":"address","internalType":"address"}]},{"type":"error","name":"ERC1155InvalidReceiver","inputs":[{"name":"receiver","type":"address","internalType":"address"}]},{"type":"error","name":"ERC1155InvalidSender","inputs":[{"name":"sender","type":"address","internalType":"address"}]},{"type":"error","name":"ERC1155MissingApprovalForAll","inputs":[{"name":"operator","type":"address","internalType":"address"},{"name":"owner","type":"address","internalType":"address"}]}],"bytecode":{"object":"0x60806040523480156200001157600080fd5b5060405162001915380380620019158339810160408190526200003491620000ad565b81620000408162000068565b50600480546001600160a01b0319166001600160a01b039290921691909117905550620002f2565b600262000076828262000226565b5050565b634e487b7160e01b600052604160045260246000fd5b80516001600160a01b0381168114620000a857600080fd5b919050565b60008060408385031215620000c157600080fd5b82516001600160401b0380821115620000d957600080fd5b818501915085601f830112620000ee57600080fd5b8151818111156200010357620001036200007a565b604051601f8201601f19908116603f011681019083821181831017156200012e576200012e6200007a565b816040528281526020935088848487010111156200014b57600080fd5b600091505b828210156200016f578482018401518183018501529083019062000150565b60008484830101528096505050506200018a81860162000090565b925050509250929050565b600181811c90821680620001aa57607f821691505b602082108103620001cb57634e487b7160e01b600052602260045260246000fd5b50919050565b601f82111562000221576000816000526020600020601f850160051c81016020861015620001fc5750805b601f850160051c820191505b818110156200021d5782815560010162000208565b5050505b505050565b81516001600160401b038111156200024257620002426200007a565b6200025a8162000253845462000195565b84620001d1565b602080601f831160018114620002925760008415620002795750858301515b600019600386901b1c1916600185901b1785556200021d565b600085815260208120601f198616915b82811015620002c357888601518255948401946001909101908401620002a2565b5085821015620002e25787850151600019600388901b60f8161c191681555b5050505050600190811b01905550565b61161380620003026000396000f3fe608060405234801561001057600080fd5b50600436106100ce5760003560e01c806361d027b31161008c578063a22cb46511610066578063a22cb465146101cf578063d3c9cc26146101e2578063e985e9c514610202578063f242432a1461021557600080fd5b806361d027b31461019657806372b3b620146101a9578063731133e9146101bc57600080fd5b8062fdd58e146100d357806301ffc9a7146100f95780630e89341c1461011c5780632eb2c2d61461013c5780633b19e84a146101515780634e1273f414610176575b600080fd5b6100e66100e1366004610dac565b610228565b6040519081526020015b60405180910390f35b61010c610107366004610def565b610250565b60405190151581526020016100f0565b61012f61012a366004610e13565b6102a0565b6040516100f09190610e72565b61014f61014a366004610fcf565b610334565b005b6004546001600160a01b03165b6040516001600160a01b0390911681526020016100f0565b610189610184366004611079565b6103a0565b6040516100f09190611175565b60045461015e906001600160a01b031681565b6100e66101b7366004611188565b61046d565b61014f6101ca366004611200565b610504565b61014f6101dd366004611261565b6105af565b6101f56101f0366004610e13565b6105be565b6040516100f0919061129d565b61010c6102103660046112d9565b6106a7565b61014f61022336600461130c565b6106d5565b6000818152602081815260408083206001600160a01b03861684529091529020545b92915050565b60006001600160e01b03198216636cdb3d1360e11b148061028157506001600160e01b031982166303a24d0760e21b145b8061024a57506301ffc9a760e01b6001600160e01b031983161461024a565b6060600280546102af90611371565b80601f01602080910402602001604051908101604052809291908181526020018280546102db90611371565b80156103285780601f106102fd57610100808354040283529160200191610328565b820191906000526020600020905b81548152906001019060200180831161030b57829003601f168201915b50505050509050919050565b336001600160a01b0386168114801590610355575061035386826106a7565b155b1561038b5760405163711bec9160e11b81526001600160a01b038083166004830152871660248201526044015b60405180910390fd5b6103988686868686610734565b505050505050565b606081518351146103d15781518351604051635b05999160e01b815260048101929092526024820152604401610382565b6000835167ffffffffffffffff8111156103ed576103ed610e85565b604051908082528060200260200182016040528015610416578160200160208202803683370190505b50905060005b84518110156104655760208082028601015161044090602080840287010151610228565b828281518110610452576104526113ab565b602090810291909101015260010161041c565b509392505050565b600080600090506000604051806060016040528087878080601f01602080910402602001604051908101604052809392919081815260200183838082843760009201829052509385525050506020808301889052604092830182905285825260039052208151919250829181906104e4908261140e565b506020820151600182015560409091015160029091015550949350505050565b600083815260036020526040902060018101546002909101546105289084906114ce565b11156105765760405162461bcd60e51b815260206004820152601b60248201527f4368616e6e656c3a206d617820737570706c79207265616368656400000000006044820152606401610382565b600083815260036020526040812060020180548492906105979084906114ce565b909155506105a990508484848461079b565b50505050565b6105ba3383836107f8565b5050565b6105e260405180606001604052806060815260200160008152602001600081525090565b6000828152600360205260409081902081516060810190925280548290829061060a90611371565b80601f016020809104026020016040519081016040528092919081815260200182805461063690611371565b80156106835780601f1061065857610100808354040283529160200191610683565b820191906000526020600020905b81548152906001019060200180831161066657829003601f168201915b50505050508152602001600182015481526020016002820154815250509050919050565b6001600160a01b03918216600090815260016020908152604080832093909416825291909152205460ff1690565b336001600160a01b03861681148015906106f657506106f486826106a7565b155b156107275760405163711bec9160e11b81526001600160a01b03808316600483015287166024820152604401610382565b610398868686868661088e565b6001600160a01b03841661075e57604051632bfa23e760e11b815260006004820152602401610382565b6001600160a01b03851661078757604051626a0d4560e21b815260006004820152602401610382565b610794858585858561091c565b5050505050565b6001600160a01b0384166107c557604051632bfa23e760e11b815260006004820152602401610382565b6040805160018082526020820186905281830190815260608201859052608082019092529061039860008784848761091c565b6001600160a01b0382166108215760405162ced3e160e81b815260006004820152602401610382565b6001600160a01b03838116600081815260016020908152604080832094871680845294825291829020805460ff191686151590811790915591519182527f17307eab39ab6107e8899845ad3d59bd9653f200f220920489ca2b5937696c31910160405180910390a3505050565b6001600160a01b0384166108b857604051632bfa23e760e11b815260006004820152602401610382565b6001600160a01b0385166108e157604051626a0d4560e21b815260006004820152602401610382565b60408051600180825260208201869052818301908152606082018590526080820190925290610913878784848761091c565b50505050505050565b6109288585858561096f565b6001600160a01b038416156107945782513390600103610961576020848101519084015161095a838989858589610b83565b5050610398565b610398818787878787610ca7565b805182511461099e5781518151604051635b05999160e01b815260048101929092526024820152604401610382565b3360005b8351811015610aa4576020818102858101820151908501909101516001600160a01b03881615610a55576000828152602081815260408083206001600160a01b038c16845290915290205481811015610a2e576040516303dee4c560e01b81526001600160a01b038a166004820152602481018290526044810183905260648101849052608401610382565b6000838152602081815260408083206001600160a01b038d16845290915290209082900390555b6001600160a01b03871615610a9a576000828152602081815260408083206001600160a01b038b16845290915281208054839290610a949084906114ce565b90915550505b50506001016109a2565b508251600103610b255760208301516000906020840151909150856001600160a01b0316876001600160a01b0316846001600160a01b03167fc3d58168c5ae7397731d063d5bbf3d657854427343f4c083240f7aacaa2d0f628585604051610b16929190918252602082015260400190565b60405180910390a45050610794565b836001600160a01b0316856001600160a01b0316826001600160a01b03167f4a39dc06d4c0dbc64b70af90fd698a233a518aa5d07e595d983b8c0526c8f7fb8686604051610b749291906114ef565b60405180910390a45050505050565b6001600160a01b0384163b156103985760405163f23a6e6160e01b81526001600160a01b0385169063f23a6e6190610bc7908990899088908890889060040161151d565b6020604051808303816000875af1925050508015610c02575060408051601f3d908101601f19168201909252610bff91810190611562565b60015b610c6b573d808015610c30576040519150601f19603f3d011682016040523d82523d6000602084013e610c35565b606091505b508051600003610c6357604051632bfa23e760e11b81526001600160a01b0386166004820152602401610382565b805181602001fd5b6001600160e01b0319811663f23a6e6160e01b1461091357604051632bfa23e760e11b81526001600160a01b0386166004820152602401610382565b6001600160a01b0384163b156103985760405163bc197c8160e01b81526001600160a01b0385169063bc197c8190610ceb908990899088908890889060040161157f565b6020604051808303816000875af1925050508015610d26575060408051601f3d908101601f19168201909252610d2391810190611562565b60015b610d54573d808015610c30576040519150601f19603f3d011682016040523d82523d6000602084013e610c35565b6001600160e01b0319811663bc197c8160e01b1461091357604051632bfa23e760e11b81526001600160a01b0386166004820152602401610382565b80356001600160a01b0381168114610da757600080fd5b919050565b60008060408385031215610dbf57600080fd5b610dc883610d90565b946020939093013593505050565b6001600160e01b031981168114610dec57600080fd5b50565b600060208284031215610e0157600080fd5b8135610e0c81610dd6565b9392505050565b600060208284031215610e2557600080fd5b5035919050565b6000815180845260005b81811015610e5257602081850181015186830182015201610e36565b506000602082860101526020601f19601f83011685010191505092915050565b602081526000610e0c6020830184610e2c565b634e487b7160e01b600052604160045260246000fd5b604051601f8201601f1916810167ffffffffffffffff81118282101715610ec457610ec4610e85565b604052919050565b600067ffffffffffffffff821115610ee657610ee6610e85565b5060051b60200190565b600082601f830112610f0157600080fd5b81356020610f16610f1183610ecc565b610e9b565b8083825260208201915060208460051b870101935086841115610f3857600080fd5b602086015b84811015610f545780358352918301918301610f3d565b509695505050505050565b600082601f830112610f7057600080fd5b813567ffffffffffffffff811115610f8a57610f8a610e85565b610f9d601f8201601f1916602001610e9b565b818152846020838601011115610fb257600080fd5b816020850160208301376000918101602001919091529392505050565b600080600080600060a08688031215610fe757600080fd5b610ff086610d90565b9450610ffe60208701610d90565b9350604086013567ffffffffffffffff8082111561101b57600080fd5b61102789838a01610ef0565b9450606088013591508082111561103d57600080fd5b61104989838a01610ef0565b9350608088013591508082111561105f57600080fd5b5061106c88828901610f5f565b9150509295509295909350565b6000806040838503121561108c57600080fd5b823567ffffffffffffffff808211156110a457600080fd5b818501915085601f8301126110b857600080fd5b813560206110c8610f1183610ecc565b82815260059290921b840181019181810190898411156110e757600080fd5b948201945b8386101561110c576110fd86610d90565b825294820194908201906110ec565b9650508601359250508082111561112257600080fd5b5061112f85828601610ef0565b9150509250929050565b60008151808452602080850194506020840160005b8381101561116a5781518752958201959082019060010161114e565b509495945050505050565b602081526000610e0c6020830184611139565b60008060006040848603121561119d57600080fd5b833567ffffffffffffffff808211156111b557600080fd5b818601915086601f8301126111c957600080fd5b8135818111156111d857600080fd5b8760208285010111156111ea57600080fd5b6020928301989097509590910135949350505050565b6000806000806080858703121561121657600080fd5b61121f85610d90565b93506020850135925060408501359150606085013567ffffffffffffffff81111561124957600080fd5b61125587828801610f5f565b91505092959194509250565b6000806040838503121561127457600080fd5b61127d83610d90565b91506020830135801515811461129257600080fd5b809150509250929050565b6020815260008251606060208401526112b96080840182610e2c565b905060208401516040840152604084015160608401528091505092915050565b600080604083850312156112ec57600080fd5b6112f583610d90565b915061130360208401610d90565b90509250929050565b600080600080600060a0868803121561132457600080fd5b61132d86610d90565b945061133b60208701610d90565b93506040860135925060608601359150608086013567ffffffffffffffff81111561136557600080fd5b61106c88828901610f5f565b600181811c9082168061138557607f821691505b6020821081036113a557634e487b7160e01b600052602260045260246000fd5b50919050565b634e487b7160e01b600052603260045260246000fd5b601f821115611409576000816000526020600020601f850160051c810160208610156113ea5750805b601f850160051c820191505b81811015610398578281556001016113f6565b505050565b815167ffffffffffffffff81111561142857611428610e85565b61143c816114368454611371565b846113c1565b602080601f83116001811461147157600084156114595750858301515b600019600386901b1c1916600185901b178555610398565b600085815260208120601f198616915b828110156114a057888601518255948401946001909101908401611481565b50858210156114be5787850151600019600388901b60f8161c191681555b5050505050600190811b01905550565b8082018082111561024a57634e487b7160e01b600052601160045260246000fd5b6040815260006115026040830185611139565b82810360208401526115148185611139565b95945050505050565b6001600160a01b03868116825285166020820152604081018490526060810183905260a06080820181905260009061155790830184610e2c565b979650505050505050565b60006020828403121561157457600080fd5b8151610e0c81610dd6565b6001600160a01b0386811682528516602082015260a0604082018190526000906115ab90830186611139565b82810360608401526115bd8186611139565b905082810360808401526115d18185610e2c565b9897505050505050505056fea26469706673582212207d9447ddbb178aa2fa29bc65e9a447fa4a555f7beac04525b2d9615c85478c5e64736f6c63430008180033","linkReferences":{}},"methodIdentifiers":{"balanceOf(address,uint256)":"00fdd58e","balanceOfBatch(address[],uint256[])":"4e1273f4","createToken(string,uint256)":"72b3b620","getTokens(uint256)":"d3c9cc26","getTreasury()":"3b19e84a","isApprovedForAll(address,address)":"e985e9c5","mint(address,uint256,uint256,bytes)":"731133e9","safeBatchTransferFrom(address,address,uint256[],uint256[],bytes)":"2eb2c2d6","safeTransferFrom(address,address,uint256,uint256,bytes)":"f242432a","setApprovalForAll(address,bool)":"a22cb465","supportsInterface(bytes4)":"01ffc9a7","treasury()":"61d027b3","uri(uint256)":"0e89341c"},"id":31}