{"abi":[{"type":"function","name":"balanceOf","inputs":[{"name":"account","type":"address","internalType":"address"}],"outputs":[{"name":"","type":"uint256","internalType":"uint256"}],"stateMutability":"view"},{"type":"function","name":"deposit","inputs":[{"name":"amount","type":"uint256","internalType":"uint256"}],"outputs":[],"stateMutability":"payable"},{"type":"function","name":"ethBalances","inputs":[{"name":"","type":"address","internalType":"address"}],"outputs":[{"name":"","type":"uint256","internalType":"uint256"}],"stateMutability":"view"},{"type":"function","name":"withdraw","inputs":[{"name":"amount","type":"uint256","internalType":"uint256"}],"outputs":[],"stateMutability":"nonpayable"}],"bytecode":{"object":"0x608060405234801561001057600080fd5b50610285806100206000396000f3fe60806040526004361061003f5760003560e01c80632e1a7d4d146100445780633cfba0e31461006657806370a08231146100a5578063b6b55f25146100db575b600080fd5b34801561005057600080fd5b5061006461005f3660046101c4565b6100ee565b005b34801561007257600080fd5b506100936100813660046101dd565b60006020819052908152604090205481565b60405190815260200160405180910390f35b3480156100b157600080fd5b506100936100c03660046101dd565b6001600160a01b031660009081526020819052604090205490565b6100646100e93660046101c4565b61019d565b336000908152602081905260409020548111156101485760405162461bcd60e51b8152602060048201526014602482015273496e73756666696369656e742062616c616e636560601b604482015260640160405180910390fd5b3360009081526020819052604081208054839290610167908490610223565b9091555050604051339082156108fc029083906000818181858888f19350505050158015610199573d6000803e3d6000fd5b5050565b33600090815260208190526040812080548392906101bc90849061023c565b909155505050565b6000602082840312156101d657600080fd5b5035919050565b6000602082840312156101ef57600080fd5b81356001600160a01b038116811461020657600080fd5b9392505050565b634e487b7160e01b600052601160045260246000fd5b818103818111156102365761023661020d565b92915050565b808201808211156102365761023661020d56fea26469706673582212208142b6a508694902cdc30e8f7ef0d9b78f1471344754b84b8ece6c5266a9d64464736f6c63430008180033","linkReferences":{}},"methodIdentifiers":{"balanceOf(address)":"70a08231","deposit(uint256)":"b6b55f25","ethBalances(address)":"3cfba0e3","withdraw(uint256)":"2e1a7d4d"},"id":32}