{"abi":[{"type":"function","name":"deployedChannels","inputs":[{"name":"","type":"uint256","internalType":"uint256"}],"outputs":[{"name":"","type":"address","internalType":"address"}],"stateMutability":"view"}],"bytecode":{"object":"0x608060405234801561001057600080fd5b5060cf8061001f6000396000f3fe6080604052348015600f57600080fd5b506004361060285760003560e01c8063cb81713914602d575b600080fd5b603c60383660046081565b6058565b6040516001600160a01b03909116815260200160405180910390f35b60008181548110606757600080fd5b6000918252602090912001546001600160a01b0316905081565b600060208284031215609257600080fd5b503591905056fea2646970667358221220c240b74a7ad7e04164e75b0777bb55051a0e1f060e3f73cffaabe5dace34abc864736f6c63430008180033","linkReferences":{}},"methodIdentifiers":{"deployedChannels(uint256)":"cb817139"},"id":36}