{"abi":[{"type":"constructor","inputs":[{"name":"uri","type":"string","internalType":"string"}],"stateMutability":"nonpayable"},{"type":"function","name":"balanceOf","inputs":[{"name":"account","type":"address","internalType":"address"},{"name":"id","type":"uint256","internalType":"uint256"}],"outputs":[{"name":"","type":"uint256","internalType":"uint256"}],"stateMutability":"view"},{"type":"function","name":"balanceOfBatch","inputs":[{"name":"accounts","type":"address[]","internalType":"address[]"},{"name":"ids","type":"uint256[]","internalType":"uint256[]"}],"outputs":[{"name":"","type":"uint256[]","internalType":"uint256[]"}],"stateMutability":"view"},{"type":"function","name":"createToken","inputs":[{"name":"uri","type":"string","internalType":"string"},{"name":"maxSupply","type":"uint256","internalType":"uint256"}],"outputs":[{"name":"","type":"uint256","internalType":"uint256"}],"stateMutability":"nonpayable"},{"type":"function","name":"getTokens","inputs":[{"name":"tokenId","type":"uint256","internalType":"uint256"}],"outputs":[{"name":"","type":"tuple","internalType":"struct Channel.TokenConfig","components":[{"name":"uri","type":"string","internalType":"string"},{"name":"maxSupply","type":"uint256","internalType":"uint256"},{"name":"totalMinted","type":"uint256","internalType":"uint256"}]}],"stateMutability":"view"},{"type":"function","name":"isApprovedForAll","inputs":[{"name":"account","type":"address","internalType":"address"},{"name":"operator","type":"address","internalType":"address"}],"outputs":[{"name":"","type":"bool","internalType":"bool"}],"stateMutability":"view"},{"type":"function","name":"safeBatchTransferFrom","inputs":[{"name":"from","type":"address","internalType":"address"},{"name":"to","type":"address","internalType":"address"},{"name":"ids","type":"uint256[]","internalType":"uint256[]"},{"name":"values","type":"uint256[]","internalType":"uint256[]"},{"name":"data","type":"bytes","internalType":"bytes"}],"outputs":[],"stateMutability":"nonpayable"},{"type":"function","name":"safeTransferFrom","inputs":[{"name":"from","type":"address","internalType":"address"},{"name":"to","type":"address","internalType":"address"},{"name":"id","type":"uint256","internalType":"uint256"},{"name":"value","type":"uint256","internalType":"uint256"},{"name":"data","type":"bytes","internalType":"bytes"}],"outputs":[],"stateMutability":"nonpayable"},{"type":"function","name":"setApprovalForAll","inputs":[{"name":"operator","type":"address","internalType":"address"},{"name":"approved","type":"bool","internalType":"bool"}],"outputs":[],"stateMutability":"nonpayable"},{"type":"function","name":"supportsInterface","inputs":[{"name":"interfaceId","type":"bytes4","internalType":"bytes4"}],"outputs":[{"name":"","type":"bool","internalType":"bool"}],"stateMutability":"view"},{"type":"function","name":"uri","inputs":[{"name":"","type":"uint256","internalType":"uint256"}],"outputs":[{"name":"","type":"string","internalType":"string"}],"stateMutability":"view"},{"type":"event","name":"ApprovalForAll","inputs":[{"name":"account","type":"address","indexed":true,"internalType":"address"},{"name":"operator","type":"address","indexed":true,"internalType":"address"},{"name":"approved","type":"bool","indexed":false,"internalType":"bool"}],"anonymous":false},{"type":"event","name":"TransferBatch","inputs":[{"name":"operator","type":"address","indexed":true,"internalType":"address"},{"name":"from","type":"address","indexed":true,"internalType":"address"},{"name":"to","type":"address","indexed":true,"internalType":"address"},{"name":"ids","type":"uint256[]","indexed":false,"internalType":"uint256[]"},{"name":"values","type":"uint256[]","indexed":false,"internalType":"uint256[]"}],"anonymous":false},{"type":"event","name":"TransferSingle","inputs":[{"name":"operator","type":"address","indexed":true,"internalType":"address"},{"name":"from","type":"address","indexed":true,"internalType":"address"},{"name":"to","type":"address","indexed":true,"internalType":"address"},{"name":"id","type":"uint256","indexed":false,"internalType":"uint256"},{"name":"value","type":"uint256","indexed":false,"internalType":"uint256"}],"anonymous":false},{"type":"event","name":"URI","inputs":[{"name":"value","type":"string","indexed":false,"internalType":"string"},{"name":"id","type":"uint256","indexed":true,"internalType":"uint256"}],"anonymous":false},{"type":"error","name":"ERC1155InsufficientBalance","inputs":[{"name":"sender","type":"address","internalType":"address"},{"name":"balance","type":"uint256","internalType":"uint256"},{"name":"needed","type":"uint256","internalType":"uint256"},{"name":"tokenId","type":"uint256","internalType":"uint256"}]},{"type":"error","name":"ERC1155InvalidApprover","inputs":[{"name":"approver","type":"address","internalType":"address"}]},{"type":"error","name":"ERC1155InvalidArrayLength","inputs":[{"name":"idsLength","type":"uint256","internalType":"uint256"},{"name":"valuesLength","type":"uint256","internalType":"uint256"}]},{"type":"error","name":"ERC1155InvalidOperator","inputs":[{"name":"operator","type":"address","internalType":"address"}]},{"type":"error","name":"ERC1155InvalidReceiver","inputs":[{"name":"receiver","type":"address","internalType":"address"}]},{"type":"error","name":"ERC1155InvalidSender","inputs":[{"name":"sender","type":"address","internalType":"address"}]},{"type":"error","name":"ERC1155MissingApprovalForAll","inputs":[{"name":"operator","type":"address","internalType":"address"},{"name":"owner","type":"address","internalType":"address"}]}],"bytecode":{"object":"0x60806040523480156200001157600080fd5b50604051620016e0380380620016e0833981016040819052620000349162000070565b80620000408162000048565b5050620002a2565b6002620000568282620001d6565b5050565b634e487b7160e01b600052604160045260246000fd5b600060208083850312156200008457600080fd5b82516001600160401b03808211156200009c57600080fd5b818501915085601f830112620000b157600080fd5b815181811115620000c657620000c66200005a565b604051601f8201601f19908116603f01168101908382118183101715620000f157620000f16200005a565b8160405282815288868487010111156200010a57600080fd5b600093505b828410156200012e57848401860151818501870152928501926200010f565b600086848301015280965050505050505092915050565b600181811c908216806200015a57607f821691505b6020821081036200017b57634e487b7160e01b600052602260045260246000fd5b50919050565b601f821115620001d1576000816000526020600020601f850160051c81016020861015620001ac5750805b601f850160051c820191505b81811015620001cd57828155600101620001b8565b5050505b505050565b81516001600160401b03811115620001f257620001f26200005a565b6200020a8162000203845462000145565b8462000181565b602080601f831160018114620002425760008415620002295750858301515b600019600386901b1c1916600185901b178555620001cd565b600085815260208120601f198616915b82811015620002735788860151825594840194600190910190840162000252565b5085821015620002925787850151600019600388901b60f8161c191681555b5050505050600190811b01905550565b61142e80620002b26000396000f3fe608060405234801561001057600080fd5b506004361061009d5760003560e01c806372b3b6201161006657806372b3b62014610140578063a22cb46514610153578063d3c9cc2614610166578063e985e9c514610186578063f242432a1461019957600080fd5b8062fdd58e146100a257806301ffc9a7146100c85780630e89341c146100eb5780632eb2c2d61461010b5780634e1273f414610120575b600080fd5b6100b56100b0366004610c28565b6101ac565b6040519081526020015b60405180910390f35b6100db6100d6366004610c6b565b6101d4565b60405190151581526020016100bf565b6100fe6100f9366004610c8f565b610224565b6040516100bf9190610cee565b61011e610119366004610e4b565b6102b8565b005b61013361012e366004610ef5565b610324565b6040516100bf9190610ff1565b6100b561014e366004611004565b6103f1565b61011e61016136600461107c565b610488565b610179610174366004610c8f565b610497565b6040516100bf91906110b8565b6100db6101943660046110f4565b610580565b61011e6101a7366004611127565b6105ae565b6000818152602081815260408083206001600160a01b03861684529091529020545b92915050565b60006001600160e01b03198216636cdb3d1360e11b148061020557506001600160e01b031982166303a24d0760e21b145b806101ce57506301ffc9a760e01b6001600160e01b03198316146101ce565b6060600280546102339061118c565b80601f016020809104026020016040519081016040528092919081815260200182805461025f9061118c565b80156102ac5780601f10610281576101008083540402835291602001916102ac565b820191906000526020600020905b81548152906001019060200180831161028f57829003601f168201915b50505050509050919050565b336001600160a01b03861681148015906102d957506102d78682610580565b155b1561030f5760405163711bec9160e11b81526001600160a01b038083166004830152871660248201526044015b60405180910390fd5b61031c868686868661060d565b505050505050565b606081518351146103555781518351604051635b05999160e01b815260048101929092526024820152604401610306565b6000835167ffffffffffffffff81111561037157610371610d01565b60405190808252806020026020018201604052801561039a578160200160208202803683370190505b50905060005b84518110156103e9576020808202860101516103c4906020808402870101516101ac565b8282815181106103d6576103d66111c6565b60209081029190910101526001016103a0565b509392505050565b600080600090506000604051806060016040528087878080601f01602080910402602001604051908101604052809392919081815260200183838082843760009201829052509385525050506020808301889052604092830182905285825260039052208151919250829181906104689082611229565b506020820151600182015560409091015160029091015550949350505050565b610493338383610674565b5050565b6104bb60405180606001604052806060815260200160008152602001600081525090565b600082815260036020526040908190208151606081019092528054829082906104e39061118c565b80601f016020809104026020016040519081016040528092919081815260200182805461050f9061118c565b801561055c5780601f106105315761010080835404028352916020019161055c565b820191906000526020600020905b81548152906001019060200180831161053f57829003601f168201915b50505050508152602001600182015481526020016002820154815250509050919050565b6001600160a01b03918216600090815260016020908152604080832093909416825291909152205460ff1690565b336001600160a01b03861681148015906105cf57506105cd8682610580565b155b156106005760405163711bec9160e11b81526001600160a01b03808316600483015287166024820152604401610306565b61031c868686868661070a565b6001600160a01b03841661063757604051632bfa23e760e11b815260006004820152602401610306565b6001600160a01b03851661066057604051626a0d4560e21b815260006004820152602401610306565b61066d8585858585610798565b5050505050565b6001600160a01b03821661069d5760405162ced3e160e81b815260006004820152602401610306565b6001600160a01b03838116600081815260016020908152604080832094871680845294825291829020805460ff191686151590811790915591519182527f17307eab39ab6107e8899845ad3d59bd9653f200f220920489ca2b5937696c31910160405180910390a3505050565b6001600160a01b03841661073457604051632bfa23e760e11b815260006004820152602401610306565b6001600160a01b03851661075d57604051626a0d4560e21b815260006004820152602401610306565b6040805160018082526020820186905281830190815260608201859052608082019092529061078f8787848487610798565b50505050505050565b6107a4858585856107eb565b6001600160a01b0384161561066d57825133906001036107dd57602084810151908401516107d68389898585896109ff565b505061031c565b61031c818787878787610b23565b805182511461081a5781518151604051635b05999160e01b815260048101929092526024820152604401610306565b3360005b8351811015610920576020818102858101820151908501909101516001600160a01b038816156108d1576000828152602081815260408083206001600160a01b038c168452909152902054818110156108aa576040516303dee4c560e01b81526001600160a01b038a166004820152602481018290526044810183905260648101849052608401610306565b6000838152602081815260408083206001600160a01b038d16845290915290209082900390555b6001600160a01b03871615610916576000828152602081815260408083206001600160a01b038b168452909152812080548392906109109084906112e9565b90915550505b505060010161081e565b5082516001036109a15760208301516000906020840151909150856001600160a01b0316876001600160a01b0316846001600160a01b03167fc3d58168c5ae7397731d063d5bbf3d657854427343f4c083240f7aacaa2d0f628585604051610992929190918252602082015260400190565b60405180910390a4505061066d565b836001600160a01b0316856001600160a01b0316826001600160a01b03167f4a39dc06d4c0dbc64b70af90fd698a233a518aa5d07e595d983b8c0526c8f7fb86866040516109f092919061130a565b60405180910390a45050505050565b6001600160a01b0384163b1561031c5760405163f23a6e6160e01b81526001600160a01b0385169063f23a6e6190610a439089908990889088908890600401611338565b6020604051808303816000875af1925050508015610a7e575060408051601f3d908101601f19168201909252610a7b9181019061137d565b60015b610ae7573d808015610aac576040519150601f19603f3d011682016040523d82523d6000602084013e610ab1565b606091505b508051600003610adf57604051632bfa23e760e11b81526001600160a01b0386166004820152602401610306565b805181602001fd5b6001600160e01b0319811663f23a6e6160e01b1461078f57604051632bfa23e760e11b81526001600160a01b0386166004820152602401610306565b6001600160a01b0384163b1561031c5760405163bc197c8160e01b81526001600160a01b0385169063bc197c8190610b67908990899088908890889060040161139a565b6020604051808303816000875af1925050508015610ba2575060408051601f3d908101601f19168201909252610b9f9181019061137d565b60015b610bd0573d808015610aac576040519150601f19603f3d011682016040523d82523d6000602084013e610ab1565b6001600160e01b0319811663bc197c8160e01b1461078f57604051632bfa23e760e11b81526001600160a01b0386166004820152602401610306565b80356001600160a01b0381168114610c2357600080fd5b919050565b60008060408385031215610c3b57600080fd5b610c4483610c0c565b946020939093013593505050565b6001600160e01b031981168114610c6857600080fd5b50565b600060208284031215610c7d57600080fd5b8135610c8881610c52565b9392505050565b600060208284031215610ca157600080fd5b5035919050565b6000815180845260005b81811015610cce57602081850181015186830182015201610cb2565b506000602082860101526020601f19601f83011685010191505092915050565b602081526000610c886020830184610ca8565b634e487b7160e01b600052604160045260246000fd5b604051601f8201601f1916810167ffffffffffffffff81118282101715610d4057610d40610d01565b604052919050565b600067ffffffffffffffff821115610d6257610d62610d01565b5060051b60200190565b600082601f830112610d7d57600080fd5b81356020610d92610d8d83610d48565b610d17565b8083825260208201915060208460051b870101935086841115610db457600080fd5b602086015b84811015610dd05780358352918301918301610db9565b509695505050505050565b600082601f830112610dec57600080fd5b813567ffffffffffffffff811115610e0657610e06610d01565b610e19601f8201601f1916602001610d17565b818152846020838601011115610e2e57600080fd5b816020850160208301376000918101602001919091529392505050565b600080600080600060a08688031215610e6357600080fd5b610e6c86610c0c565b9450610e7a60208701610c0c565b9350604086013567ffffffffffffffff80821115610e9757600080fd5b610ea389838a01610d6c565b94506060880135915080821115610eb957600080fd5b610ec589838a01610d6c565b93506080880135915080821115610edb57600080fd5b50610ee888828901610ddb565b9150509295509295909350565b60008060408385031215610f0857600080fd5b823567ffffffffffffffff80821115610f2057600080fd5b818501915085601f830112610f3457600080fd5b81356020610f44610d8d83610d48565b82815260059290921b84018101918181019089841115610f6357600080fd5b948201945b83861015610f8857610f7986610c0c565b82529482019490820190610f68565b96505086013592505080821115610f9e57600080fd5b50610fab85828601610d6c565b9150509250929050565b60008151808452602080850194506020840160005b83811015610fe657815187529582019590820190600101610fca565b509495945050505050565b602081526000610c886020830184610fb5565b60008060006040848603121561101957600080fd5b833567ffffffffffffffff8082111561103157600080fd5b818601915086601f83011261104557600080fd5b81358181111561105457600080fd5b87602082850101111561106657600080fd5b6020928301989097509590910135949350505050565b6000806040838503121561108f57600080fd5b61109883610c0c565b9150602083013580151581146110ad57600080fd5b809150509250929050565b6020815260008251606060208401526110d46080840182610ca8565b905060208401516040840152604084015160608401528091505092915050565b6000806040838503121561110757600080fd5b61111083610c0c565b915061111e60208401610c0c565b90509250929050565b600080600080600060a0868803121561113f57600080fd5b61114886610c0c565b945061115660208701610c0c565b93506040860135925060608601359150608086013567ffffffffffffffff81111561118057600080fd5b610ee888828901610ddb565b600181811c908216806111a057607f821691505b6020821081036111c057634e487b7160e01b600052602260045260246000fd5b50919050565b634e487b7160e01b600052603260045260246000fd5b601f821115611224576000816000526020600020601f850160051c810160208610156112055750805b601f850160051c820191505b8181101561031c57828155600101611211565b505050565b815167ffffffffffffffff81111561124357611243610d01565b61125781611251845461118c565b846111dc565b602080601f83116001811461128c57600084156112745750858301515b600019600386901b1c1916600185901b17855561031c565b600085815260208120601f198616915b828110156112bb5788860151825594840194600190910190840161129c565b50858210156112d95787850151600019600388901b60f8161c191681555b5050505050600190811b01905550565b808201808211156101ce57634e487b7160e01b600052601160045260246000fd5b60408152600061131d6040830185610fb5565b828103602084015261132f8185610fb5565b95945050505050565b6001600160a01b03868116825285166020820152604081018490526060810183905260a06080820181905260009061137290830184610ca8565b979650505050505050565b60006020828403121561138f57600080fd5b8151610c8881610c52565b6001600160a01b0386811682528516602082015260a0604082018190526000906113c690830186610fb5565b82810360608401526113d88186610fb5565b905082810360808401526113ec8185610ca8565b9897505050505050505056fea2646970667358221220a4507d36cbf0249b4944045980ce407726264d9aa886534f9c0d1d8d5eefa7c764736f6c63430008180033","linkReferences":{}},"methodIdentifiers":{"balanceOf(address,uint256)":"00fdd58e","balanceOfBatch(address[],uint256[])":"4e1273f4","createToken(string,uint256)":"72b3b620","getTokens(uint256)":"d3c9cc26","isApprovedForAll(address,address)":"e985e9c5","safeBatchTransferFrom(address,address,uint256[],uint256[],bytes)":"2eb2c2d6","safeTransferFrom(address,address,uint256,uint256,bytes)":"f242432a","setApprovalForAll(address,bool)":"a22cb465","supportsInterface(bytes4)":"01ffc9a7","uri(uint256)":"0e89341c"},"id":31}