{"abi":[{"type":"function","name":"treasury","inputs":[],"outputs":[{"name":"","type":"address","internalType":"address"}],"stateMutability":"view"}],"bytecode":{"object":"0x6080604052348015600f57600080fd5b5060918061001e6000396000f3fe6080604052348015600f57600080fd5b506004361060285760003560e01c806361d027b314602d575b600080fd5b600154603f906001600160a01b031681565b6040516001600160a01b03909116815260200160405180910390f3fea26469706673582212203c221dd6982c422937501335317828e3ec05860236ec65e1b1d1dee9bc82d3fe64736f6c63430008180033","linkReferences":{}},"methodIdentifiers":{"treasury()":"61d027b3"},"id":38}